{
  "_format": "hh-sol-artifact-1",
  "contractName": "PredictionMarket",
  "sourceName": "contracts/PredictionMarket.sol",
  "abi": [
    {
      "inputs": [],
      "stateMutability": "nonpayable",
      "type": "constructor"
    },
    {
      "anonymous": false,
      "inputs": [
        {
          "indexed": true,
          "internalType": "uint256",
          "name": "eventId",
          "type": "uint256"
        },
        {
          "indexed": false,
          "internalType": "string",
          "name": "title",
          "type": "string"
        },
        {
          "indexed": false,
          "internalType": "uint256",
          "name": "endTime",
          "type": "uint256"
        }
      ],
      "name": "EventCreated",
      "type": "event"
    },
    {
      "anonymous": false,
      "inputs": [
        {
          "indexed": true,
          "internalType": "uint256",
          "name": "eventId",
          "type": "uint256"
        },
        {
          "indexed": false,
          "internalType": "bool",
          "name": "result",
          "type": "bool"
        }
      ],
      "name": "EventResolved",
      "type": "event"
    },
    {
      "anonymous": false,
      "inputs": [
        {
          "indexed": true,
          "internalType": "uint256",
          "name": "eventId",
          "type": "uint256"
        },
        {
          "indexed": true,
          "internalType": "address",
          "name": "user",
          "type": "address"
        },
        {
          "indexed": false,
          "internalType": "uint256",
          "name": "amount",
          "type": "uint256"
        }
      ],
      "name": "RewardClaimed",
      "type": "event"
    },
    {
      "anonymous": false,
      "inputs": [
        {
          "indexed": true,
          "internalType": "uint256",
          "name": "eventId",
          "type": "uint256"
        },
        {
          "indexed": true,
          "internalType": "address",
          "name": "user",
          "type": "address"
        },
        {
          "indexed": false,
          "internalType": "bool",
          "name": "isYes",
          "type": "bool"
        },
        {
          "indexed": false,
          "internalType": "uint256",
          "name": "amount",
          "type": "uint256"
        }
      ],
      "name": "StakePlaced",
      "type": "event"
    },
    {
      "inputs": [
        {
          "internalType": "uint256",
          "name": "_eventId",
          "type": "uint256"
        }
      ],
      "name": "claimReward",
      "outputs": [],
      "stateMutability": "nonpayable",
      "type": "function"
    },
    {
      "inputs": [
        {
          "internalType": "string",
          "name": "_title",
          "type": "string"
        },
        {
          "internalType": "string",
          "name": "_desc",
          "type": "string"
        },
        {
          "internalType": "uint256",
          "name": "_endTime",
          "type": "uint256"
        }
      ],
      "name": "createPrediction",
      "outputs": [],
      "stateMutability": "nonpayable",
      "type": "function"
    },
    {
      "inputs": [
        {
          "internalType": "uint256",
          "name": "",
          "type": "uint256"
        }
      ],
      "name": "events",
      "outputs": [
        {
          "internalType": "uint256",
          "name": "id",
          "type": "uint256"
        },
        {
          "internalType": "string",
          "name": "title",
          "type": "string"
        },
        {
          "internalType": "string",
          "name": "description",
          "type": "string"
        },
        {
          "internalType": "uint256",
          "name": "endTime",
          "type": "uint256"
        },
        {
          "internalType": "bool",
          "name": "resolved",
          "type": "bool"
        },
        {
          "internalType": "bool",
          "name": "result",
          "type": "bool"
        },
        {
          "internalType": "uint256",
          "name": "totalYesPool",
          "type": "uint256"
        },
        {
          "internalType": "uint256",
          "name": "totalNoPool",
          "type": "uint256"
        }
      ],
      "stateMutability": "view",
      "type": "function"
    },
    {
      "inputs": [
        {
          "internalType": "uint256",
          "name": "_cursor",
          "type": "uint256"
        },
        {
          "internalType": "uint256",
          "name": "_count",
          "type": "uint256"
        }
      ],
      "name": "getEvents",
      "outputs": [
        {
          "components": [
            {
              "internalType": "uint256",
              "name": "id",
              "type": "uint256"
            },
            {
              "internalType": "string",
              "name": "title",
              "type": "string"
            },
            {
              "internalType": "string",
              "name": "description",
              "type": "string"
            },
            {
              "internalType": "uint256",
              "name": "endTime",
              "type": "uint256"
            },
            {
              "internalType": "bool",
              "name": "resolved",
              "type": "bool"
            },
            {
              "internalType": "bool",
              "name": "result",
              "type": "bool"
            },
            {
              "internalType": "uint256",
              "name": "totalYesPool",
              "type": "uint256"
            },
            {
              "internalType": "uint256",
              "name": "totalNoPool",
              "type": "uint256"
            }
          ],
          "internalType": "struct PredictionMarket.PredictionEvent[]",
          "name": "",
          "type": "tuple[]"
        }
      ],
      "stateMutability": "view",
      "type": "function"
    },
    {
      "inputs": [],
      "name": "nextEventId",
      "outputs": [
        {
          "internalType": "uint256",
          "name": "",
          "type": "uint256"
        }
      ],
      "stateMutability": "view",
      "type": "function"
    },
    {
      "inputs": [],
      "name": "owner",
      "outputs": [
        {
          "internalType": "address",
          "name": "",
          "type": "address"
        }
      ],
      "stateMutability": "view",
      "type": "function"
    },
    {
      "inputs": [
        {
          "internalType": "uint256",
          "name": "_eventId",
          "type": "uint256"
        },
        {
          "internalType": "bool",
          "name": "_isYes",
          "type": "bool"
        }
      ],
      "name": "placePrediction",
      "outputs": [],
      "stateMutability": "payable",
      "type": "function"
    },
    {
      "inputs": [
        {
          "internalType": "uint256",
          "name": "_eventId",
          "type": "uint256"
        },
        {
          "internalType": "bool",
          "name": "_result",
          "type": "bool"
        }
      ],
      "name": "resolvePrediction",
      "outputs": [],
      "stateMutability": "nonpayable",
      "type": "function"
    },
    {
      "inputs": [
        {
          "internalType": "uint256",
          "name": "",
          "type": "uint256"
        },
        {
          "internalType": "address",
          "name": "",
          "type": "address"
        }
      ],
      "name": "userStakes",
      "outputs": [
        {
          "internalType": "uint256",
          "name": "yesStake",
          "type": "uint256"
        },
        {
          "internalType": "uint256",
          "name": "noStake",
          "type": "uint256"
        },
        {
          "internalType": "bool",
          "name": "claimed",
          "type": "bool"
        }
      ],
      "stateMutability": "view",
      "type": "function"
    }
  ],
  "bytecode": "0x608060405234801561001057600080fd5b5033600160006101000a81548173ffffffffffffffffffffffffffffffffffffffff021916908373ffffffffffffffffffffffffffffffffffffffff1602179055506121b5806100616000396000f3fe6080604052600436106100865760003560e01c80639f9d903a116100595780639f9d903a14610160578063ae169a501461018b578063c4c580d4146101b4578063d472a570146101d0578063e8990524146101f957610086565b80630b7914301461008b5780631c71682c146100cf57806376f345011461010c5780638da5cb5b14610135575b600080fd5b34801561009757600080fd5b506100b260048036038101906100ad9190611097565b610238565b6040516100c698979695949392919061117e565b60405180910390f35b3480156100db57600080fd5b506100f660048036038101906100f1919061120a565b6103aa565b604051610103919061142b565b60405180910390f35b34801561011857600080fd5b50610133600480360381019061012e9190611479565b610685565b005b34801561014157600080fd5b5061014a61087f565b60405161015791906114fa565b60405180910390f35b34801561016c57600080fd5b506101756108a5565b6040516101829190611515565b60405180910390f35b34801561019757600080fd5b506101b260048036038101906101ad9190611097565b6108ab565b005b6101ce60048036038101906101c99190611479565b610b96565b005b3480156101dc57600080fd5b506101f760048036038101906101f29190611665565b610e38565b005b34801561020557600080fd5b50610220600480360381019061021b919061171c565b610fc0565b60405161022f9392919061175c565b60405180910390f35b6002602052806000526040600020600091509050806000015490806001018054610261906117c2565b80601f016020809104026020016040519081016040528092919081815260200182805461028d906117c2565b80156102da5780601f106102af576101008083540402835291602001916102da565b820191906000526020600020905b8154815290600101906020018083116102bd57829003601f168201915b5050505050908060020180546102ef906117c2565b80601f016020809104026020016040519081016040528092919081815260200182805461031b906117c2565b80156103685780601f1061033d57610100808354040283529160200191610368565b820191906000526020600020905b81548152906001019060200180831161034b57829003601f168201915b5050505050908060030154908060040160009054906101000a900460ff16908060040160019054906101000a900460ff16908060050154908060060154905088565b606060008054905080841061041657600067ffffffffffffffff8111156103d4576103d361153a565b5b60405190808252806020026020018201604052801561040d57816020015b6103fa611004565b8152602001906001900390816103f25790505b5091505061067f565b60008390508181866104289190611822565b111561043d57848261043a9190611856565b90505b60008167ffffffffffffffff8111156104595761045861153a565b5b60405190808252806020026020018201604052801561049257816020015b61047f611004565b8152602001906001900390816104775790505b50905060005b82811015610677576002600082896104b09190611822565b815260200190815260200160002060405180610100016040529081600082015481526020016001820180546104e4906117c2565b80601f0160208091040260200160405190810160405280929190818152602001828054610510906117c2565b801561055d5780601f106105325761010080835404028352916020019161055d565b820191906000526020600020905b81548152906001019060200180831161054057829003601f168201915b50505050508152602001600282018054610576906117c2565b80601f01602080910402602001604051908101604052809291908181526020018280546105a2906117c2565b80156105ef5780601f106105c4576101008083540402835291602001916105ef565b820191906000526020600020905b8154815290600101906020018083116105d257829003601f168201915b50505050508152602001600382015481526020016004820160009054906101000a900460ff161515151581526020016004820160019054906101000a900460ff161515151581526020016005820154815260200160068201548152505082828151811061065f5761065e61188a565b5b60200260200101819052508080600101915050610498565b508093505050505b92915050565b600160009054906101000a900473ffffffffffffffffffffffffffffffffffffffff1673ffffffffffffffffffffffffffffffffffffffff163373ffffffffffffffffffffffffffffffffffffffff1614610715576040517f08c379a000000000000000000000000000000000000000000000000000000000815260040161070c90611905565b60405180910390fd5b60006002600084815260200190815260200160002090506000548310610770576040517f08c379a000000000000000000000000000000000000000000000000000000000815260040161076790611971565b60405180910390fd5b80600301544210156107b7576040517f08c379a00000000000000000000000000000000000000000000000000000000081526004016107ae906119dd565b60405180910390fd5b8060040160009054906101000a900460ff1615610809576040517f08c379a000000000000000000000000000000000000000000000000000000000815260040161080090611a49565b60405180910390fd5b60018160040160006101000a81548160ff021916908315150217905550818160040160016101000a81548160ff021916908315150217905550827f17124873aec4a4b1ba3660b40d20291d60e85c85f1f19c45b09715a01178133f836040516108729190611a69565b60405180910390a2505050565b600160009054906101000a900473ffffffffffffffffffffffffffffffffffffffff1681565b60005481565b60006002600083815260200190815260200160002090508060040160009054906101000a900460ff16610913576040517f08c379a000000000000000000000000000000000000000000000000000000000815260040161090a90611ad0565b60405180910390fd5b60006003600084815260200190815260200160002060003373ffffffffffffffffffffffffffffffffffffffff1673ffffffffffffffffffffffffffffffffffffffff16815260200190815260200160002090508060020160009054906101000a900460ff16156109b9576040517f08c379a00000000000000000000000000000000000000000000000000000000081526004016109b090611b3c565b60405180910390fd5b60008060008460040160019054906101000a900460ff16156109ef57846005015492508460060154915083600001549050610a05565b8460060154925084600501549150836001015490505b60008111610a48576040517f08c379a0000000000000000000000000000000000000000000000000000000008152600401610a3f90611ba8565b60405180910390fd5b60018460020160006101000a81548160ff02191690831515021790555060008284610a739190611822565b90506000848284610a849190611bc8565b610a8e9190611c39565b905060003373ffffffffffffffffffffffffffffffffffffffff1682604051610ab690611c9b565b60006040518083038185875af1925050503d8060008114610af3576040519150601f19603f3d011682016040523d82523d6000602084013e610af8565b606091505b5050905080610b3c576040517f08c379a0000000000000000000000000000000000000000000000000000000008152600401610b3390611cfc565b60405180910390fd5b3373ffffffffffffffffffffffffffffffffffffffff16897f24b5efa61dd1cfc659205a97fb8ed868f3cb8c81922bab2b96423e5de1de2cb784604051610b839190611515565b60405180910390a3505050505050505050565b60006002600084815260200190815260200160002090506000548310610bf1576040517f08c379a0000000000000000000000000000000000000000000000000000000008152600401610be890611971565b60405180910390fd5b80600301544210610c37576040517f08c379a0000000000000000000000000000000000000000000000000000000008152600401610c2e90611d68565b60405180910390fd5b8060040160009054906101000a900460ff1615610c89576040517f08c379a0000000000000000000000000000000000000000000000000000000008152600401610c8090611a49565b60405180910390fd5b60003411610ccc576040517f08c379a0000000000000000000000000000000000000000000000000000000008152600401610cc390611dd4565b60405180910390fd5b8115610d5c5734816005016000828254610ce69190611822565b92505081905550346003600085815260200190815260200160002060003373ffffffffffffffffffffffffffffffffffffffff1673ffffffffffffffffffffffffffffffffffffffff1681526020019081526020016000206000016000828254610d509190611822565b92505081905550610de2565b34816006016000828254610d709190611822565b92505081905550346003600085815260200190815260200160002060003373ffffffffffffffffffffffffffffffffffffffff1673ffffffffffffffffffffffffffffffffffffffff1681526020019081526020016000206001016000828254610dda9190611822565b925050819055505b3373ffffffffffffffffffffffffffffffffffffffff16837fa3879d551ba45a0604aaa4a7c6a8ddb76bfbbc80492db9657cc2b9abbe6d02808434604051610e2b929190611df4565b60405180910390a3505050565b428111610e7a576040517f08c379a0000000000000000000000000000000000000000000000000000000008152600401610e7190611e69565b60405180910390fd5b6000806000815480929190610e8e90611e89565b91905055905060405180610100016040528082815260200185815260200184815260200183815260200160001515815260200160001515815260200160008152602001600081525060026000838152602001908152602001600020600082015181600001556020820151816001019081610f08919061207d565b506040820151816002019081610f1e919061207d565b506060820151816003015560808201518160040160006101000a81548160ff02191690831515021790555060a08201518160040160016101000a81548160ff02191690831515021790555060c0820151816005015560e08201518160060155905050807fee37bb5143a14810f72e86fce895be08e16090409d2e18f79b308995e39b73d48584604051610fb292919061214f565b60405180910390a250505050565b6003602052816000526040600020602052806000526040600020600091509150508060000154908060010154908060020160009054906101000a900460ff16905083565b6040518061010001604052806000815260200160608152602001606081526020016000815260200160001515815260200160001515815260200160008152602001600081525090565b6000604051905090565b600080fd5b600080fd5b6000819050919050565b61107481611061565b811461107f57600080fd5b50565b6000813590506110918161106b565b92915050565b6000602082840312156110ad576110ac611057565b5b60006110bb84828501611082565b91505092915050565b6110cd81611061565b82525050565b600081519050919050565b600082825260208201905092915050565b60005b8381101561110d5780820151818401526020810190506110f2565b60008484015250505050565b6000601f19601f8301169050919050565b6000611135826110d3565b61113f81856110de565b935061114f8185602086016110ef565b61115881611119565b840191505092915050565b60008115159050919050565b61117881611163565b82525050565b600061010082019050611194600083018b6110c4565b81810360208301526111a6818a61112a565b905081810360408301526111ba818961112a565b90506111c960608301886110c4565b6111d6608083018761116f565b6111e360a083018661116f565b6111f060c08301856110c4565b6111fd60e08301846110c4565b9998505050505050505050565b6000806040838503121561122157611220611057565b5b600061122f85828601611082565b925050602061124085828601611082565b9150509250929050565b600081519050919050565b600082825260208201905092915050565b6000819050602082019050919050565b61127f81611061565b82525050565b600082825260208201905092915050565b60006112a1826110d3565b6112ab8185611285565b93506112bb8185602086016110ef565b6112c481611119565b840191505092915050565b6112d881611163565b82525050565b6000610100830160008301516112f76000860182611276565b506020830151848203602086015261130f8282611296565b915050604083015184820360408601526113298282611296565b915050606083015161133e6060860182611276565b50608083015161135160808601826112cf565b5060a083015161136460a08601826112cf565b5060c083015161137760c0860182611276565b5060e083015161138a60e0860182611276565b508091505092915050565b60006113a183836112de565b905092915050565b6000602082019050919050565b60006113c18261124a565b6113cb8185611255565b9350836020820285016113dd85611266565b8060005b8581101561141957848403895281516113fa8582611395565b9450611405836113a9565b925060208a019950506001810190506113e1565b50829750879550505050505092915050565b6000602082019050818103600083015261144581846113b6565b905092915050565b61145681611163565b811461146157600080fd5b50565b6000813590506114738161144d565b92915050565b600080604083850312156114905761148f611057565b5b600061149e85828601611082565b92505060206114af85828601611464565b9150509250929050565b600073ffffffffffffffffffffffffffffffffffffffff82169050919050565b60006114e4826114b9565b9050919050565b6114f4816114d9565b82525050565b600060208201905061150f60008301846114eb565b92915050565b600060208201905061152a60008301846110c4565b92915050565b600080fd5b600080fd5b7f4e487b7100000000000000000000000000000000000000000000000000000000600052604160045260246000fd5b61157282611119565b810181811067ffffffffffffffff821117156115915761159061153a565b5b80604052505050565b60006115a461104d565b90506115b08282611569565b919050565b600067ffffffffffffffff8211156115d0576115cf61153a565b5b6115d982611119565b9050602081019050919050565b82818337600083830152505050565b6000611608611603846115b5565b61159a565b90508281526020810184848401111561162457611623611535565b5b61162f8482856115e6565b509392505050565b600082601f83011261164c5761164b611530565b5b813561165c8482602086016115f5565b91505092915050565b60008060006060848603121561167e5761167d611057565b5b600084013567ffffffffffffffff81111561169c5761169b61105c565b5b6116a886828701611637565b935050602084013567ffffffffffffffff8111156116c9576116c861105c565b5b6116d586828701611637565b92505060406116e686828701611082565b9150509250925092565b6116f9816114d9565b811461170457600080fd5b50565b600081359050611716816116f0565b92915050565b6000806040838503121561173357611732611057565b5b600061174185828601611082565b925050602061175285828601611707565b9150509250929050565b600060608201905061177160008301866110c4565b61177e60208301856110c4565b61178b604083018461116f565b949350505050565b7f4e487b7100000000000000000000000000000000000000000000000000000000600052602260045260246000fd5b600060028204905060018216806117da57607f821691505b6020821081036117ed576117ec611793565b5b50919050565b7f4e487b7100000000000000000000000000000000000000000000000000000000600052601160045260246000fd5b600061182d82611061565b915061183883611061565b92508282019050808211156118505761184f6117f3565b5b92915050565b600061186182611061565b915061186c83611061565b9250828203905081811115611884576118836117f3565b5b92915050565b7f4e487b7100000000000000000000000000000000000000000000000000000000600052603260045260246000fd5b7f4f6e6c79206f776e65722063616e2063616c6c20746869730000000000000000600082015250565b60006118ef6018836110de565b91506118fa826118b9565b602082019050919050565b6000602082019050818103600083015261191e816118e2565b9050919050565b7f4576656e7420646f6573206e6f74206578697374000000000000000000000000600082015250565b600061195b6014836110de565b915061196682611925565b602082019050919050565b6000602082019050818103600083015261198a8161194e565b9050919050565b7f4576656e7420686173206e6f7420656e64656420796574000000000000000000600082015250565b60006119c76017836110de565b91506119d282611991565b602082019050919050565b600060208201905081810360008301526119f6816119ba565b9050919050565b7f4576656e7420616c7265616479207265736f6c76656400000000000000000000600082015250565b6000611a336016836110de565b9150611a3e826119fd565b602082019050919050565b60006020820190508181036000830152611a6281611a26565b9050919050565b6000602082019050611a7e600083018461116f565b92915050565b7f4576656e74206e6f74207265736f6c7665642079657400000000000000000000600082015250565b6000611aba6016836110de565b9150611ac582611a84565b602082019050919050565b60006020820190508181036000830152611ae981611aad565b9050919050565b7f52657761726420616c726561647920636c61696d656400000000000000000000600082015250565b6000611b266016836110de565b9150611b3182611af0565b602082019050919050565b60006020820190508181036000830152611b5581611b19565b9050919050565b7f4e6f2077696e6e696e67207374616b6500000000000000000000000000000000600082015250565b6000611b926010836110de565b9150611b9d82611b5c565b602082019050919050565b60006020820190508181036000830152611bc181611b85565b9050919050565b6000611bd382611061565b9150611bde83611061565b9250828202611bec81611061565b91508282048414831517611c0357611c026117f3565b5b5092915050565b7f4e487b7100000000000000000000000000000000000000000000000000000000600052601260045260246000fd5b6000611c4482611061565b9150611c4f83611061565b925082611c5f57611c5e611c0a565b5b828204905092915050565b600081905092915050565b50565b6000611c85600083611c6a565b9150611c9082611c75565b600082019050919050565b6000611ca682611c78565b9150819050919050565b7f5472616e73666572206661696c65640000000000000000000000000000000000600082015250565b6000611ce6600f836110de565b9150611cf182611cb0565b602082019050919050565b60006020820190508181036000830152611d1581611cd9565b9050919050565b7f4576656e742068617320656e6465640000000000000000000000000000000000600082015250565b6000611d52600f836110de565b9150611d5d82611d1c565b602082019050919050565b60006020820190508181036000830152611d8181611d45565b9050919050565b7f5374616b65206d757374206265203e2030000000000000000000000000000000600082015250565b6000611dbe6011836110de565b9150611dc982611d88565b602082019050919050565b60006020820190508181036000830152611ded81611db1565b9050919050565b6000604082019050611e09600083018561116f565b611e1660208301846110c4565b9392505050565b7f456e642074696d65206d75737420626520696e20667574757265000000000000600082015250565b6000611e53601a836110de565b9150611e5e82611e1d565b602082019050919050565b60006020820190508181036000830152611e8281611e46565b9050919050565b6000611e9482611061565b91507fffffffffffffffffffffffffffffffffffffffffffffffffffffffffffffffff8203611ec657611ec56117f3565b5b600182019050919050565b60008190508160005260206000209050919050565b60006020601f8301049050919050565b600082821b905092915050565b600060088302611f337fffffffffffffffffffffffffffffffffffffffffffffffffffffffffffffffff82611ef6565b611f3d8683611ef6565b95508019841693508086168417925050509392505050565b6000819050919050565b6000611f7a611f75611f7084611061565b611f55565b611061565b9050919050565b6000819050919050565b611f9483611f5f565b611fa8611fa082611f81565b848454611f03565b825550505050565b600090565b611fbd611fb0565b611fc8818484611f8b565b505050565b5b81811015611fec57611fe1600082611fb5565b600181019050611fce565b5050565b601f8211156120315761200281611ed1565b61200b84611ee6565b8101602085101561201a578190505b61202e61202685611ee6565b830182611fcd565b50505b505050565b600082821c905092915050565b600061205460001984600802612036565b1980831691505092915050565b600061206d8383612043565b9150826002028217905092915050565b612086826110d3565b67ffffffffffffffff81111561209f5761209e61153a565b5b6120a982546117c2565b6120b4828285611ff0565b600060209050601f8311600181146120e757600084156120d5578287015190505b6120df8582612061565b865550612147565b601f1984166120f586611ed1565b60005b8281101561211d578489015182556001820191506020850194506020810190506120f8565b8683101561213a5784890151612136601f891682612043565b8355505b6001600288020188555050505b505050505050565b60006040820190508181036000830152612169818561112a565b905061217860208301846110c4565b939250505056fea2646970667358221220c36e0b4d29ea4ddb532adcb1e3ae89290c92e93ab0df78fe010a2d716d8bb56964736f6c63430008180033",
  "linkReferences": {},
  "deployedLinkReferences": {}
}